:1000000010C02AC03FC128C027C026C025C024C0B8
:1000100023C022C021C020C01FC01EC01DC01CC0E4
:100020001BC011241FBECFE5D1E0DEBFCDBF10E065
:10003000A0E6B0E0E8E3F4E002C005900D92A83835
:10004000B107D9F720E0A8E8B0E001C01D92AC39B3
:10005000B207E1F78ED1EEC1D3CF8BB780618BBFF2
:10006000979A78940895DC01FA0110828C91862386
:10007000E9F78CE18A95F1F7000088E38A95F1F7BA
:1000800000C08C91862319F080818160808388E391
:100090008A95F1F700C08C91862319F080818260E7
:1000A000808388E38A95F1F700C08C91862319F04C
:1000B00080818460808388E38A95F1F700C08C9109
:1000C000862319F080818860808388E38A95F1F720
:1000D00000C08C91862319F080818061808388E341
:1000E0008A95F1F700C08C91862319F08081806297
:1000F000808388E38A95F1F700C08C91862319F0FC
:1001000080818064808388E38A95F1F700C08C91B8
:10011000862319F080818068808388E38A95F1F7CF
:1001200000C08CE18A95F1F700000895FC019081F0
:10013000862F80959823908398E39A95F1F700C0D5
:10014000908140FF02C0962B01C09823908398E3D2
:100150009A95F1F700C0908141FF02C0962B01C033
:100160009823908398E39A95F1F700C0908142FF1D
:1001700002C0962B01C09823908398E39A95F1F7DB
:1001800000C0908143FF02C0962B01C0982390834A
:1001900098E39A95F1F700C0908144FF02C0962B36
:1001A00001C09823908398E39A95F1F700C090815D
:1001B00045FF02C0962B01C09823908398E39A953F
:1001C000F1F700C0908146FF02C0962B01C0982332
:1001D000908398E39A95F1F700C047FF04C08081AF
:1001E000862B808303C090819823908388E38A952F
:1001F000F1F700C08081862B808398E39A95F1F710
:1002000000C088E38A95F1F700C008954AE062E0F3
:100210008BE390E08BDF4DE062E08BE390E086CFF4
:10022000FF920F931F93CF93DF938C01F62EEA0179
:100230001092990010929800E0919800F091990026
:10024000EC0FFD1F40816F2DC80170DF20919800D9
:10025000309199002F5F3F4F309399002093980081
:10026000FE01E20FF31F80818111E6CFDF91CF9174
:100270001F910F91FF90089548E850E062E08BE3F2
:1002800090E0CECF1F920F920FB60F9211242F93B2
:100290003F934F935F936F937F938F939F93AF930E
:1002A000BF93EF93FF93CF992EC040E650E062E0FA
:1002B0008BE390E0B5DFAADF80E380939700109294
:1002C0009B0010929A0047E950E061E089E390E0DA
:1002D000CADE809197008A3041F580919A00909112
:1002E0009B009C012F5F3F4F30939B0020939A000F
:1002F000FC01E857FF4F108247E650E062E08BE3D5
:1003000090E08EDF83DFA9DEFF91EF91BF91AF9187
:100310009F918F917F916F915F914F913F912F911D
:100320000F900FBE0F901F9018959FEB980F9A316A
:1003300018F4805E80939700409197008FE9840FB6
:100340008A3108F680919A0090919B009C012F5F62
:100350003F4F30939B0020939A00FC01E857FF4FDA
:10036000408380919A0090919B00099709F0ABCF50
:10037000A6CF80E886BD16BCD99ADB98D19AD39ACD
:100380006CDEC1E0D0E046E950E061E089E390E056
:100390006ADE41E750E062E08BE390E041DF36DF68
:1003A0001092950010929400109293001092920077
:1003B00080919A0090919B00019720919400309138
:1003C00095002817390728F546E950E061E089E3F0
:1003D00090E049DE8091940090919500FC01E857EF
:1003E000FF4F208130919600321769F04BE750E0C3
:1003F00062E08BE390E014DFDB9808DFD09393009A
:10040000C093920006C0019690939500809394004B
:10041000CFCF8091920090919300892B09F0B3CFB8
:1004200041E850E062E08BE390E0FADE25DFEEDEAB
:08043000DB9AA9CFF894FFCF7D
:1004380053657475702100436F6D706C6574652E1B
:100448000050617373776F72643F0057726F6E6705
:08045800005041535321200024
:00000001FF
